:100000000C94A8000C94D0000C94D0000C94D00058
:100010000C94D0000C94D0000C94D0000C94D00020
:100020000C94D0000C94D0000C94D0000C94D00010
:100030000C94DF0A0C94D0000C94D0000C94D000E7
:100040000C943D0A0C94D0000C94AD0A0C94870AD1
:100050000C94D0000C94D0000C94D0000C94D000E0
:100060000C94280B0C94D00007634236B79BD8A79A
:100070001A39685618AEBAAB558C1D3CB7CC5763CD
:10008000BD6DEDFD753EF6177231BF000000803F7B
:1000900005A84CCDB2D44EB93836A9020C50B9914E
:1000A0008688083CA6AAAA2ABE000000803F080055
:1000B0000000BE922449123EABAAAA2ABECDCCCCE7
:1000C0004C3E00000080BEABAAAAAA3E0000000081
:1000D000BF000000803F0000000000084178D3BB53
:1000E0004387D1133D190E3CC3BD4282AD2B3E6800
:1000F000EC8276BED98FE1A93E4C80EFFFBE01C4F1
:10010000FF7F3F00000000000000000025002800E5
:100110002B00040404040404040402020202020288
:1001200003030303030301020408102040800102BB
:10013000040810200102040810200000000800023A
:100140000100000304070000000000000000C10CD3
:1001500011241FBECFEFD8E0DEBFCDBF11E0A0E07D
:10016000B1E0E8EEF5E202C005900D92A832B107C9
:10017000D9F725E0A8E2B1E001C01D92A331B20792
:10018000E1F710E0C8EAD0E004C02197FE010E9428
:10019000E512C73AD107C9F70E94210D0C94F2125B
:1001A0000C9400002091050281E0213208F044C047
:1001B0008091E1018111FCCF8091040292E0909343
:1001C000E10191E09093E0019FEF9093DF011092A5
:1001D000DE012093DD01A4EEB1E0EDEBF1E090E073
:1001E000291331C01092BC019091BC01880F892B5A
:1001F0008093BC018091BB01813049F51092BB0115
:100200008091BC018093BB008091BC0083FDF8CF3E
:1002100085EC8093BC008091E1018230E1F3809114
:10022000DF018F3FB1F08091DF018032A1F080913A
:10023000DF01803391F084E01092E3011092050217
:100240001092E20108953D9131939F5FC9CF85EEF1
:10025000E0CF80E0F1CF82E0EFCF83E0EDCF8F926F
:100260009F92AF92BF92CF92DF92FF920F931F9314
:10027000CF93DF9300D01F92CDB7DEB76C017B83A5
:100280006A83F42EA0918103B091820380909D0334
:1002900090909E0300919F031091A003A819B909A3
:1002A00024EB30E00E94EB1262547F4F8F4F9F4F40
:1002B000980128193909032E000C440B550B0E9494
:1002C000170EC216D30699F480918E0391E0892708
:1002D0000F900F900F90DF91CF911F910F91FF9092
:1002E000DF90CF90BF90AF909F908F9008958A81BC
:1002F0009B81892B21F4E1E0F0E0FB83EA83D601C6
:10030000A21BB30BB7FF03C0B195A195B10928EEAD
:1003100033E00E94EB12EA81FB819F0150E040E054
:100320000E94170E3B832A8380918B03807E8983F2
:10033000803629F4C901880F991F9B838A83809195
:1003400093038F3F09F47CC0092C000CAA08BB085A
:10035000012E000C220B330BA90198012819390931
:100360004A095B09D6010E94410E24EB30E040E0CF
:1003700050E00E94170E820E931EA41EB51E90928E
:10038000860380928503809181039091820394017A
:10039000281B390B3093880320938703EA81FB8164
:1003A000F0939903E09398039093840380938303DD
:1003B000F981F03621F490938603809385032FB75B
:1003C000F8948091B7019091B801A091B901B091D2
:1003D000BA012FBF8093940390939503A093960343
:1003E000B093970380918E0391E089272091870332
:1003F00030918803232B09F46BCF90938E03FF2059
:1004000009F466CF92E0909380009AE19093810086
:1004100020E43CE93093870020938600B29A9091C3
:100420006F00946090936F0090918100906890931A
:1004300081002CED3BE930938B0020938A0048CF5C
:1004400081E046CF90E0FC01E65CFE4F2491FC0188
:10045000EA5DFE4F3491FC01EE5EFE4FE491EE2327
:10046000B1F0222339F02330E9F090F4213001F18A
:10047000223011F1F0E0EE0FFF1FE85FFE4FA59173
:10048000B4918FB7F894EC913E2B3C938FBF0895B5
:100490002730A9F02830C9F0243061F7809180001E
:1004A0008F7D03C0809180008F7780938000E2CFA2
:1004B00084B58F7784BDDECF84B58F7DFBCF8091EF
:1004C000B0008F778093B000D5CF8091B0008F7D42
:1004D000F9CF3FB7F8948091B3019091B401A09106
:1004E000B501B091B60126B5A89B05C02F3F19F004
:1004F0000196A11DB11D3FBFBA2FA92F982F8827A4
:10050000BC01CD01620F711D811D911D42E0660F7E
:10051000771F881F991F4A95D1F708958F929F9250
:10052000AF92BF92CF92DF92EF92FF924B015C01AC
:100530000E9469026B017C010E9469026C197D09AD
:100540008E099F09683E734081059105A8F321E05B
:10055000821A9108A108B10888EEC80E83E0D81E5F
:10056000E11CF11C81149104A104B10429F7FF904E
:10057000EF90DF90CF90BF90AF909F908F900895B5
:10058000AF92BF92CF92DF92EF92FF920F931F93A1
:10059000CF93DF936C017B018B01040F151FEB01DF
:1005A0005E01AE18BF08C017D10759F06991D60196
:1005B000ED91FC910190F081E02DC6010995892B08
:1005C00079F7C501DF91CF911F910F91FF90EF90C7
:1005D000DF90CF90BF90AF900895FC01538D448D74
:1005E000252F30E0842F90E0821B930B541710F0DE
:1005F000CF96089501970895FC01918D828D9817EB
:1006000061F0A28DAE0FBF2FB11D5D968C91928DC2
:100610009F5F9F73928F90E008958FEF9FEF0895F3
:10062000FC01918D828D981731F0828DE80FF11DBC
:10063000858D90E008958FEF9FEF0895FC01918DD7
:10064000228D892F90E0805C9F4F821B91098F73D0
:100650009927089586E092E00E941E0321E0892BED
:1006600009F420E0822F089580E090E0892B29F0A2
:100670000E942A0381110C9400000895FC01A48DAE
:10068000A80FB92FB11DA35ABF4F2C91848D90E0B4
:1006900001968F739927848FA689B7892C93A08997
:1006A000B1898C91837080648C93938D848D981321
:1006B00006C00288F389E02D80818F7D80830895B4
:1006C000EF92FF920F931F93CF93DF93EC0181E0A2
:1006D000888F9B8D8C8D98131AC0E889F989808149
:1006E00085FF15C09FB7F894EE89FF896083E8897C
:1006F000F98980818370806480839FBF81E090E06E
:10070000DF91CF911F910F91FF90EF900895F62EFA
:100710000B8D10E00F5F1F4F0F731127E02E8C8D94
:100720008E110CC00FB607FCFACFE889F9898081D9
:1007300085FFF5CFCE010E943E03F1CFEB8DEC0F8C
:10074000FD2FF11DE35AFF4FF0829FB7F8940B8FF6
:10075000EA89FB8980818062CFCFCF93DF93EC0160
:10076000888D8823B9F0AA89BB89E889F9898C9199
:1007700085FD03C0808186FD0DC00FB607FCF7CF55
:100780008C9185FFF2CF808185FFEDCFCE010E9455
:100790003E03E9CFDF91CF910895089508951F9307
:1007A000CF93DF93EC01142F8F8598892E8531E04C
:1007B0003093E201209304021092E30110920502AB
:1007C000DC01ED91FC910190F081E02D09958F8580
:1007D0009889DC01ED91FC910190F081E02D612F71
:1007E0000995DF91CF911F910C94D2001F93CF9365
:1007F000DF93EC01698B8FE690E09D8F8C8F8BEE01
:1008000091E09F8F8E8F8FEF8A8BE1E9F1E090E08E
:1008100080E041915191452B09F05AC0FC01EE0F47
:10082000FF1FEF56FE4FD183C0838A8B2091B10109
:10083000281710F48093B1018A8981114EC010925B
:10084000900110928F011092E30110920502109214
:10085000E10111E01093E0011092BB0182E10E94DE
:10086000220283E10E9422028091B9008E7F809350
:10087000B9008091B9008D7F8093B90088E480939E
:10088000B80085E48093BC008DEC93E090938E01DA
:1008900080938D018EEC93E090938C0180938B017B
:1008A00082E08093B8008F8598891093E2011092BE
:1008B00004021092E30110920502DC01ED91FC911B
:1008C0000190F081E02D66E009950E94D20005C0FC
:1008D00001968031910509F09CCF40E160E0CE01A6
:1008E0000E94CF0349E76EEFCE010E94CF0340E2A2
:1008F00060E0CE010E94CF0362E070E080E090E013
:100900000E948E028A89DF91CF911F910895DC01A8
:10091000ED91FC910190F081E02D0994EF92FF920E
:100920000F931F93CF93DF93EC01798368830A8D34
:100930001B8D060F171F898D882351F08C8D9D8D7F
:10094000081B190B6E8D7F8DCB01801B910B8C01C9
:10095000298930E07901F594E794FE2CEE248F8507
:1009600098894E8551E05093E20140930402109221
:10097000E30110920502220F331F220F331FB9012A
:100980006A5F7F4FDC01ED91FC910190F081E02DD9
:100990000995B7018F8598890E9487046F2D70E0B3
:1009A0008F8598890E9487040E0D1F1DB8018F85C1
:1009B00098890E948704612F70E08F8598890E9432
:1009C0008704DF91CF911F910F91FF90EF900C94CE
:1009D000D200AF92BF92CF92DF92EF92FF920F932D
:1009E0001F93CF93DF93EC015B016A01790168816A
:1009F0007981C9960E94F6036A817B81CE01875A6C
:100A00009F4F0E94F6036C817D81CE0187589F4FD6
:100A10000E94F603BFAAAEAAAA94AB2809F092C01E
:100A20006E8D7F8D072E000C880B990B0E94960F00
:100A30006A8B7B8B8C8B9D8B68A179A1072E000C18
:100A4000880B990B0E94960F6E8B7F8B888F998FE6
:100A50006AA17BA1072E000C880B990B0E94960FB0
:100A60006A8F7B8F8C8F9D8FB601DD0C880B990B65
:100A70000E94960F2A893B894C895D890E947B0ED2
:100A80000E945E0F653B710514F064EB70E077FF28
:100A900002C070E060E0072E000C880B990B0E94EA
:100AA000960F6A8B7B8B8C8B9D8BB701FF0C880B11
:100AB000990B0E94960F2E893F89488D598D0E946F
:100AC0007B0E0E945E0F653B710514F064EB70E0D5
:100AD00077FF02C070E060E0072E000C880B990BD6
:100AE0000E94960F6E8B7F8B888F998FB801110FA4
:100AF000880B990B0E94960F2A8D3B8D4C8D5D8D36
:100B00000E947B0E0E945E0F653B710514F064EB42
:100B100070E077FF02C070E060E0072E000C880BE9
:100B2000990B0E94960F6A8F7B8F8C8F9D8FDF9120
:100B3000CF911F910F91FF90EF90DF90CF90BF90DA
:100B4000AF9008956CA17DA1072E000C880B990B26
:100B50000E94960F6A8B7B8B8C8B9D8B6EA17FA1E5
:100B6000072E000C880B990B0E94960F6E8B7F8BC3
:100B7000888F998F68A579A56DCF0895E091900130
:100B800080918F01E81730F4F0E0E559FE4F808145
:100B900090E008958FEF9FEF0895909190018091DC
:100BA0008F012FEF3FEF981748F4E92FF0E0E55958
:100BB000FE4F208130E09F5F90939001C90108951E
:100BC00080918F0190919001891B990B089590E07D
:100BD00080E0089585ED8093BC008091BC0084FD89
:100BE000FCCF1092E101089520914801260F332790
:100BF000331F21323105ECF42091E101FC0190E03A
:100C000080E0243069F082E00895A09148012191AC
:100C1000AC01485D5E4FA40FB52FB11D2C9301961A
:100C2000861798F380914801680F6093480180E02F
:100C3000089581E00895CF92DF92EF92FF920F9393
:100C40001F93CF93DF937C01CB018A012091E201B6
:100C5000222389F0EB016B01C40ED51ECC15DD05F6
:100C600069F06991D701ED91FC910190F081E02D3F
:100C7000C7010995F3CF642F0E94F405C801DF91E5
:100C8000CF911F910F91FF90EF90DF90CF9008953B
:100C9000CF93DF931F92CDB7DEB769832091E20136
:100CA0002223F9F020910502203258F021E030E0B3
:100CB000FC013383228390E080E00F90DF91CF919D
:100CC00008958091E301E82FF0E0EC51FE4F998107
:100CD00090838F5F8093E3018093050281E090E031
:100CE000ECCF61E0CE0101960E94F405F7CF8F9220
:100CF0009F92AF92BF920F931F93CF93DF93CDB785
:100D0000DEB7A1970FB6F894DEBF0FBECDBF19A214
:100D1000423008F44AE08E010F5D1F4F842E912C63
:100D2000B12CA12CA50194010E94490EE62FB90116
:100D3000CA01EA3044F5E05DD801EE938D01232B22
:100D4000242B252B79F790E080E0109769F0FD01C6
:100D500001900020E9F73197AF014A1B5B0BBD0101
:100D600086E092E00E94C002A1960FB6F894DEBF22
:100D70000FBECDBFDF91CF911F910F91BF90AF906C
:100D80009F908F900895E95CD7CFCF92DF92EF923A
:100D9000FF92CF93DF936C01092E000CEE08FF0841
:100DA00097FF23C06DE286E092E00E946003EC01B1
:100DB00066277727CB016C197D098E099F094AE0C8
:100DC0000E947706C80FD91F42E050E064E271E04C
:100DD00086E092E00E94C0028C0F9D1FDF91CF91B0
:100DE000FF90EF90DF90CF9008954AE0C701B601E1
:100DF0000E947706EC01E8CF4F925F926F927F924C
:100E00008F929F92AF92BF92CF92DF92EF92FF921A
:100E1000DC011A96EC911A97EF70E150EF3008F070
:100E20005CC16A017B01F0E0E85EF84F0C94E512CA
:100E30003C074F0758076D086D086D086D0861077E
:100E400078079107B407DB076D086D0827071B9625
:100E5000ED91FC91309709F440C1CB01BA01FF90AC
:100E6000EF90DF90CF90BF90AF909F908F907F904A
:100E70006F905F904F900994AB019601CB01B60142
:100E80000E944B10FF90EF90DF90CF90BF90AF90FB
:100E90009F908F907F906F905F904F900895AB01DF
:100EA0009601CB01B6010E944B10A7019601E8CF35
:100EB000AB019601CB01B6010E944B109B01AC0126
:100EC000DFCF20E030E040E85FE3CB01B6010E94D5
:100ED0007A0E2BED3FE049EC5FE30E944B100E943D
:100EE000081120E030E040E85FE30E947B0ECACFAB
:100EF000AB019601CB01B6010E944B109B01AC01E6
:100F000060E070E080E89FE30E947A0E0E94161174
:100F10009B01AC0160E070E080E89FE30E947A0EE4
:100F2000B1CF2BED3FE049E450E4CB01B6010E9484
:100F30004B100E9408112B013C01A7019601C7012B
:100F4000B6010E944B10A70196010E944B104B0165
:100F50005C01A3019201C701B6010E944B109B01E5
:100F6000AC01C501B401DACF22EE3CE543EA51E41D
:100F7000CB01B6010E944B100E9408114B015C018D
:100F800020E030E040E85FE3C701B6010E947A0E3E
:100F900020E030E040E251E40E944B109B01AC01A4
:100FA00060E070E080E090E40E94B8109B01AC012A
:100FB000C501B40165CF2CE83EE24AEB5EE3CB010C
:100FC000B6010E94E70E87FF11C020E030E042EF3B
:100FD00052E4C701B6010E944B10A70196010E947E
:100FE0004B1020E030E040E85DE34ACF2CE83EE2E1
:100FF0004AE35FE3C701B6010E94E70E87FF21C005
:1010000023E333E341E151E4C701B6010E944B10F1
:10101000A70196010E944B104B015C0126E636E6C3
:101020004EE151E4C701B6010E944B109B01AC0197
:10103000C501B4010E947A0E2AE939E949E550E474
:1010400054CF26E636E646E65FE3C701B6010E94C6
:10105000E70E87FF21C02FE430E141E451E4C701EE
:10106000B6010E944B10A70196010E944B104B0144
:101070005C012BE635E14DE951E4C701B6010E9460
:101080004B109B01AC01C501B4010E947A0E25E70B
:101090003EE54EE051E429CF2DEC3CEC4CE251E42E
:1010A000C701B6010E944B10A70196010E944B1088
:1010B0004B015C0126EF38E244EA51E4C701B60176
:1010C0000E944B109B01AC01C501B4010E947A0E35
:1010D0002FE135E84BE251E408CF60E070E0CB014E
:1010E000D1CE8F929F92AF92BF92CF92DF92EF922A
:1010F000FF921F93CF93DF93EC018FB7F894209169
:10110000B7013091B8014091B9015091BA018FBF38
:101110008B899C89AD89BE89281B390B4A0B5B0BD7
:10112000CF88D88CF12CE12C2C153D054E055F05A0
:10113000B0F08A898F3F29F06C817D81CE010E94B9
:101140008E041D8681E0DF91CF911F91FF90EF907B
:10115000DF90CF90BF90AF909F908F9008951A85A9
:1011600011110DC0AE81BF810E94410EA7019601F1
:101170000E94170E6A817B81620F731F52C0CA01E1
:10118000B9010E94940F4B015C01C701B6010E9496
:10119000940F9B01AC01C501B4010E94EC0E6B01E0
:1011A0007C01107E09F04AC0BC01A601CE010E945C
:1011B000FC066B017C0120E030E040E050E40E943E
:1011C000461087FD99C08C8C9D8C092C000CAA08B8
:1011D000BB0820E030E040E853E4C701B6010E94BC
:1011E0007A0E20E030E040E05FE30E947B0E0E9438
:1011F0005E0F2E8D3F8D032E000C440B550B2819CE
:1012000039094A095B09DB010E94410E24EB30E0F9
:1012100040E050E00E94170E820E931EA41EB51EE1
:10122000B401888199818617970731F08A898F3FA9
:1012300019F0CE010E948E0480E085CFAC019B01A5
:10124000103229F120E030E040E05FE30E94E70E39
:1012500018164CF1103409F04AC0A7019601C701D5
:10126000B6010E947B0EAB01BC01CE010E94FC06C0
:1012700020E030E040E05FE30E944B109ACFA701EE
:101280009601C701B6010E947B0E9B01AC0160E094
:1012900070E080E89FE30E947A0EAB01BC01CE01B2
:1012A0000E94FC061BC01034C1F5A7019601C701BE
:1012B000B6010E947B0E9B01AC0160E070E080E013
:1012C00090E40E947A0EAB01BC01CE010E94FC06A4
:1012D00020E030E040E05FE30E944B109B01AC0156
:1012E00060E070E080E89FE30E947A0E62CF1036E3
:1012F00031F2C12CD12C76016E817F81072E000C3A
:10130000880B990B0E94960FA70196010E944B1023
:101310000E945E0F2A813B812FCF103651F7A70123
:101320009601C701B6010E947B0E20E030E040E844
:101330005FE3B1CFCF92DF92EF92FF92CF93DF9333
:10134000F42E0E945E0F6838710514F067E870E0B3
:1013500077FF02C070E060E0072E000C880B990B4D
:101360000E94960F9B01AC0160915A0370915B0340
:1013700080915C0390915D03E0917E03F0917F0387
:10138000319779F50E947B0E0E945E0FEB01653B61
:10139000710514F0C4EBD0E0D7FF02C0D0E0C0E08C
:1013A0008091800381113DC0F1101EC041E068ECC6
:1013B00070E0CE010E942F01BE01DD0F880B990B5A
:1013C0000E94960F60934E0370934F0380935003D7
:1013D00090935103DF91CF91FF90EF90DF90CF90EA
:1013E00008950E947A0ED0CF88EC90E090938A0303
:1013F0008093890340E068EC70E0CE010E942F01E9
:1014000064E170E080E090E00E948E0280918E03A3
:10141000882391F281E893E00E947108882381F388
:10142000CBCF809193038F3F39F2C0909D03D09032
:101430009E030D2C000CEE08FF0820919F033091B5
:10144000A003032E000C440B550B2C193D094E092B
:101450005F09DE010E94410E24EB30E040E050E0E5
:101460000E94170ECA01B9016C0D7D1D8E1D9F1DB6
:1014700081E893E00E948E049FCF1F920F920FB6D7
:101480000F9211242F933F938F939F93AF93BF930A
:101490008091B7019091B801A091B901B091BA01C2
:1014A0003091B20123E0230F2D3758F50196A11D8D
:1014B000B11D2093B2018093B7019093B801A0931E
:1014C000B901B093BA018091B3019091B401A09198
:1014D000B501B091B6010196A11DB11D8093B30174
:1014E0009093B401A093B501B093B601BF91AF91B1
:1014F0009F918F913F912F910F900FBE0F901F9052
:10150000189526E8230F0296A11DB11DD2CF1F9278
:101510000F920FB60F9211242F933F934F935F9327
:101520006F937F938F939F93AF93BF93EF93FF93AB
:1015300086E092E00E943E03FF91EF91BF91AF9150
:101540009F918F917F916F915F914F913F912F91DB
:101550000F900FBE0F901F9018951F920F920FB60D
:101560000F9211242F938F939F93EF93FF93E0910A
:101570001602F09117028081E0911C02F0911D0289
:1015800082FD1BC0908180911F028F5F8F7320911D
:101590002002821741F0E0911F02F0E0EA5FFD4F68
:1015A000958F80931F02FF91EF919F918F912F91C3
:1015B0000F900FBE0F901F9018958081F4CF1F924F
:1015C0000F920FB60F9211242F933F934F935F9377
:1015D0006F937F938F939F93AF93BF93CF93DF933B
:1015E000EF93FF937894C0E0D1E08091B1018C1724
:1015F000A8F0EC2FF0E0EE0FFF1FEF56FE4F8081BA
:101600009181009749F0FC012585222329F00E9451
:101610007108811101C0D0E0CF5FE7CFDD2329F051
:1016200080916F008B7F80936F00FF91EF91DF912E
:10163000CF91BF91AF919F918F917F916F915F916A
:101640004F913F912F910F900FBE0F901F901895C3
:101650001F920F920FB60F9211242F933F934F9327
:101660005F936F937F938F939F93AF93BF93EF930A
:10167000FF938091B900887F803609F44AC0F0F565
:10168000883209F4A7C018F5803109F49BC0B8F47A
:10169000882309F4F9C0883009F494C0FF91EF91D0
:1016A000BF91AF919F918F917F916F915F914F917A
:1016B0003F912F910F900FBE0F901F90189588317A
:1016C00009F488C0803251F78093DF0114C0803460
:1016D00009F49DC040F48033B9F38833F9F6809360
:1016E000DF0185ECB0C0803509F485C0883509F488
:1016F00096C0883499F60E94EA05D0CF883909F45B
:101700008CC038F5883729F050F4883611F08037CE
:1017100029F683E08093E10110926A0157C088386E
:1017200009F47BC0803919F0803809F0B7CF809177
:101730006A01803208F071C0E0916A0181E08E0F89
:1017400080936A018091BB00F0E0E65BFE4F8083EE
:101750003DC0803B39F0E0F4803A09F479C0883A22
:1017600009F09CCF84E08093E1011092490110922E
:101770004801E0918D01F0918E0109958091480119
:1017800081110FC081E0809348011092280109C0A7
:10179000803C09F4A6CF883C09F4A3CF883B09F02C
:1017A0007DCFE091490181E08E0F80934901F0E007
:1017B000E85DFE4F80818093BB009091490180914C
:1017C000480129C08091BC018093BB0085EC8093C7
:1017D000BC0064CF9091DE018091DD01981758F52F
:1017E000E091DE0181E08E0F8093DE01F0E0E354B2
:1017F000FE4F8081E9CFE091DE0181E08E0F809382
:10180000DE018091BB00F0E0E354FE4F80839091B5
:10181000DE018091DD019817C8F285E8D8CFE0910C
:10182000DE0181E08E0F8093DE018091BB00F0E04D
:10183000E354FE4F80838091E00181115CCF81E011
:101840008093BB0184EA8093BC001092E10126CF13
:1018500085EC8093BC001092E10180916A01803296
:1018600030F4E0916A01F0E0E65BFE4F1082609197
:101870006A0170E0E0918B01F0918C018AE491E0C3
:10188000099510926A010ACF1092DF0134CFCF93ED
:10189000DF93FC01E901178E168E82E890E091A398
:1018A00080A384EB90E093A382A38CE890E095A3BF
:1018B00084A317A216A211A610A617AA16AA81E041
:1018C00080AFDF01A95BBF4F30E43C93119683EA00
:1018D00092E011969C938E931B9611961C921E92E9
:1018E000529711961C921E9215961C921C961C9251
:1018F0001F971C92119611961C921E9255961E9639
:101900003C931E9750969C938E931F975B961C92C8
:101910001E925A9719961C921E9218971D961C9209
:101920001D9759961C9259971A961C921A971C96B5
:101930001C921E921B9790961E963C931E97509653
:101940009C938E931F975B961C921E925A971996A2
:101950001C921E9218971D961C921D9759961C92C8
:1019600059971A961C921A971C961C921E921B97B6
:101970007183608353834283D583C483DF91CF9186
:101980000895E6E0F2E01382128288EE93E0A0E090
:10199000B0E084839583A683B78324E031E031836C
:1019A000208325EC30E03587248724EC30E037872E
:1019B000268720EC30E0318B208B21EC30E0338B1C
:1019C000228B22EC30E0358B248B26EC30E0378BF9
:1019D000268B118E128E138E148EE3EAF2E01382A0
:1019E000128284839583A683B78386E191E09183F5
:1019F000808322E030E041E050E070E060E08FEA78
:101A000092E00E94470C26E030E045E050E064E0C0
:101A100070E088E493E00E94470C2AE030E049E05F
:101A200050E068E070E081EE93E00E94470C2EE009
:101A300030E04DE050E06CE070E08AE794E00C9418
:101A4000470C789484B5826084BD84B5816084BD80
:101A500085B5826085BD85B5816085BD80916E004C
:101A6000816080936E00109281008091810082607D
:101A700080938100809181008160809381008091BA
:101A800080008160809380008091B10084608093A9
:101A9000B1008091B00081608093B00080917A00A5
:101AA000846080937A0080917A00826080937A00CB
:101AB00080917A00816080937A0080917A008068BA
:101AC00080937A001092C1000CEE1FEF30E020E00E
:101AD00050E040E061E070E08FEA92E00E94E904AB
:101AE0000EE110E025E030E046EF5FEF62E070E0ED
:101AF00088E493E00E94E90402EE1FEF2BEF3FEF32
:101B000050E040E061E070E081EE93E00E94E90483
:101B100009E110E030E020E050E040E062E070E0F9
:101B20008AE794E00E94E904E0911602F09117021E
:101B300082E08083E0911202F09113021082E09122
:101B40001402F09115028FEC808310921E02E09136
:101B50001A02F0911B0286E08083E0911802F09156
:101B60001902808180618083E0911802F09119024E
:101B7000808188608083E0911802F0911902808151
:101B800080688083E0911802F091190280818F7D36
:101B9000808341E060E070E0CB010E949A0990E010
:101BA00080E00E94C5066CED75E080E090E00E9448
:101BB0008E0241E060E070E084EB92EC0E949A09B2
:101BC00086EA9FEF0E94C5066CED75E080E090E02C
:101BD0000E948E0241E060E070E084EB92E40E949B
:101BE0009A098AE590E00E94C5066CED75E080E0F8
:101BF00090E00E948E0241E060E070E084E393E4B4
:101C00000E949A0984EB90E00E94C5066CED75E095
:101C100080E090E00E948E02C0E0D0E02097F1F3D7
:101C20000E942A038823D1F30E940000F7CF052EDB
:101C300097FB1EF400940E942E0E57FD07D00E94C1
:101C4000490E07FC03D04EF40C942E0E509540958F
:101C5000309521953F4F4F4F5F4F08959095809558
:101C6000709561957F4F8F4F9F4F08950E946B0E27
:101C7000A59F900DB49F900DA49F800D911D1124E0
:101C80000895B7FF0C94360E0E94360E821B930BFC
:101C90000895A1E21A2EAA1BBB1BFD010DC0AA1FAD
:101CA000BB1FEE1FFF1FA217B307E407F50720F0C5
:101CB000A21BB30BE40BF50B661F771F881F991F40
:101CC0001A9469F760957095809590959B01AC0189
:101CD000BD01CF010895A29FB001B39FC001A39F92
:101CE000700D811D1124911DB29F700D811D112455
:101CF000911D08955058BB27AA270E94920E0C945C
:101D00000C100E94FE0F38F00E94051020F039F4EC
:101D10009F3F19F426F40C94FB0F0EF4E095E7FBBB
:101D20000C94F50FE92F0E941D1058F3BA176207A3
:101D300073078407950720F079F4A6F50C943F10FB
:101D40000EF4E0950B2EBA2FA02D0B01B9019001D6
:101D50000C01CA01A0011124FF27591B99F0593F1A
:101D600050F4503E68F11A16F040A22F232F342F62
:101D70004427585FF3CF469537952795A795F040B0
:101D80005395C9F77EF41F16BA0B620B730B840BC5
:101D9000BAF09150A1F0FF0FBB1F661F771F881F7D
:101DA000C2F70EC0BA0F621F731F841F48F48795D5
:101DB00077956795B795F7959E3F08F0B0CF9395C7
:101DC000880F08F09927EE0F9795879508950E9440
:101DD000D10F08F481E008950E94000F0C940C10BC
:101DE0000E94051058F00E94FE0F40F029F45F3F5A
:101DF00029F00C94F50F51110C9440100C94FB0F2A
:101E00000E941D1068F39923B1F3552391F3951B9C
:101E1000550BBB27AA2762177307840738F09F5F0B
:101E20005F4F220F331F441FAA1FA9F335D00E2E78
:101E30003AF0E0E832D091505040E695001CCAF7E5
:101E40002BD0FE2F29D0660F771F881FBB1F2617A8
:101E500037074807AB07B0E809F0BB0B802DBF017F
:101E6000FF2793585F4F3AF09E3F510578F00C944E
:101E7000F50F0C9440105F3FE4F3983ED4F3869541
:101E800077956795B795F7959F5FC9F7880F911D6F
:101E90009695879597F90895E1E0660F771F881F5B
:101EA000BB1F621773078407BA0720F0621B730B0E
:101EB000840BBA0BEE1F88F7E09508950E94650F1A
:101EC0006894B1110C94401008950E94251088F078
:101ED0009F5798F0B92F9927B751B0F0E1F0660FEE
:101EE000771F881F991F1AF0BA95C9F714C0B1302F
:101EF00091F00E943F10B1E008950C943F10672FBD
:101F0000782F8827B85F39F0B93FCCF3869577955D
:101F10006795B395D9F73EF4909580957095619546
:101F20007F4F8F4F9F4F0895E89409C097FB3EF471
:101F300090958095709561957F4F8F4F9F4F992316
:101F4000A9F0F92F96E9BB279395F6958795779594
:101F50006795B795F111F8CFFAF4BB0F11F460FF54
:101F60001BC06F5F7F4F8F4F9F4F16C0882311F0AC
:101F700096E911C0772321F09EE8872F762F05C0C0
:101F8000662371F096E8862F70E060E02AF09A955B
:101F9000660F771F881FDAF7880F9695879597F950
:101FA0000895990F0008550FAA0BE0E8FEEF1616EA
:101FB0001706E807F907C0F012161306E407F5073D
:101FC00098F0621B730B840B950B39F40A2661F0B1
:101FD000232B242B252B21F408950A2609F4A14054
:101FE000A6958FEF811D811D089597F99F6780E861
:101FF00070E060E008959FEF80EC089500240A945B
:102000001616170618060906089500240A941216D3
:102010001306140605060895092E0394000C11F406
:10202000882352F0BB0F40F4BF2B11F460FF04C0B3
:102030006F5F7F4F8F4F9F4F089557FD9058440F0C
:10204000551F59F05F3F71F04795880F97FB991F17
:1020500061F09F3F79F087950895121613061406D4
:10206000551FF2CF4695F1DF08C016161706180661
:10207000991FF1CF86957105610508940895E8943C
:10208000BB2766277727CB0197F908950E94D10FC8
:1020900008F48FEF08950E945E100C940C100E94BB
:1020A000FE0F38F00E94051020F0952311F00C94DB
:1020B000F50F0C94FB0F11240C9440100E941D107E
:1020C00070F3959FC1F3950F50E0551F629FF0018B
:1020D000729FBB27F00DB11D639FAA27F00DB11DA4
:1020E000AA1F649F6627B00DA11D661F829F22272D
:1020F000B00DA11D621F739FB00DA11D621F839FB4
:10210000A00D611D221F749F3327A00D611D231F89
:10211000849F600D211D822F762F6A2F11249F57D7
:1021200050409AF0F1F088234AF0EE0FFF1FBB1FDA
:10213000661F771F881F91505040A9F79E3F510599
:1021400080F00C94F50F0C9440105F3FE4F3983E40
:10215000D4F3869577956795B795F795E7959F5F43
:10216000C1F7FE2B880F911D9695879597F90895D5
:10217000FA01EE0FFF1F309621053105A1F161151F
:10218000710561F48038BFE39B0749F1689490388A
:10219000810561F08038BFEF9B0741F099234AF534
:1021A000FF3FE1053105210519F1E8940894E79511
:1021B000D901AA2329F4AB2FBE2FF85FD0F310C0AA
:1021C000FF5F70F4A695E0F7F73950F019F0FF3A89
:1021D00038F49F779F930DD00F9007FC9058089587
:1021E00046F00C94FB0F60E070E080E89FE30895F8
:1021F0004FE79F775F934F933F932F930E94551222
:102200002F913F914F915F910E944B100C945E1162
:102210009F930E94CE110F9007FCEE5F0C94F71174
:1022200019F416F40C94FB0F0C9490110E942510D5
:10223000B8F39923C9F3B6F39F57550B87FF0E9454
:102240009E110024A0E640EA90018058569597958B
:1022500028F4805C660F771F881F20F02617370749
:10226000480730F4621B730B840B202931294A2B59
:10227000A69517940794202531254A2758F7660F0D
:10228000771F881F20F026173707480730F4620BA6
:10229000730B840B200D311D411DA09581F7B901F1
:1022A000842F9158880F96958795089529F416F0F4
:1022B0000C94F50F0C943F100C94FB0F0E9425100A
:1022C000A8F39638A0F707F80F92E8942BE33AEAC0
:1022D00048EB5FE70E9461100F920F920F924DB78B
:1022E0005EB70F920E949D12E8E6F0E00E94A511F1
:1022F0004F915F91EF91FF91E595EE1FFF1F49F020
:10230000FE57E0684427EE0F441FFA95E1F7419528
:10231000550B0E9417120F9007FE0C940B12089594
:102320009F3F31F0915020F4879577956795B79549
:10233000880F911D9695879597F908959150504073
:10234000660F771F881FD2F70895DF93CF931F93EF
:102350000F93FF92EF92DF927B018C01689406C08D
:10236000DA2EEF010E945E10FE01E894A5912591FE
:10237000359145915591A6F3EF010E94920EFE0111
:102380009701A801DA9469F7DF90EF90FF900F9121
:102390001F91CF91DF9108950C94FB0F0E9425109F
:1023A000D8F3E894E0E0BB279F57F0F02AED3FE038
:1023B00049EC06C0EE0FBB0F661F771F881F28F081
:1023C000B23A62077307840728F0B25A620B730BA4
:1023D000840BE3959A9572F7803830F49A95BB0F89
:1023E000661F771F881FD2F790480C949211EF93C5
:1023F000E0FF07C0A2EA2AED3FE049EC5FEB0E9454
:10240000920E0E940C100F90039401FC9058E0E98A
:10241000F0E00C94D1129B01AC0160E070E080E828
:102420009FE30C94EC0E0C94F50F0C9490110E9409
:102430002510D8F39923C9F3940F511DA3F391509C
:10244000504094F059F0882332F0660F771F881FB0
:1024500091505040C1F79E3F51052CF7880F911DB8
:102460009695879597F908955F3FACF0983E9CF05C
:10247000BB27869577956795B79508F4B1609395D6
:10248000C1F7BB0F58F711F460FFE8CF6F5F7F4FC4
:102490008F4F9F4FE3CF0C94401016F00C94901187
:1024A0000C94FB0F68940C94F50F0E942510A8F370
:1024B0009923C1F3AEF3DF93CF931F930F93FF9252
:1024C000C92FDD2788232AF02197660F771F881FE1
:1024D000DAF720E030E040E85FEB9FE3883920F056
:1024E000803E38F021968F770E947B0EEEEAF0E076
:1024F00004C00E947B0EEBEDF0E00E94A5118B0161
:10250000BE01EC01FB2E6F5771097595771F880B83
:10251000990B0E94960F28E132E741E35FE30E94A6
:102520005E10AF2D9801AE01FF900F911F91CF91DA
:10253000DF910E94920E0C940C10FA01DC01AA0F9C
:10254000BB1F9B01AC01BF5728F422273327442728
:10255000507820C0B75190F4AB2F002446953795A2
:102560002795011CA395D2F3002071F0220F331F91
:10257000441FB395DAF30ED00C947A0E61307105D6
:10258000A0E88A07B94630F49B01AC01662777279B
:1025900088279078309621F02083318342835383BB
:1025A00008959F938F937F936F93FF93EF939B0176
:1025B000AC010E944B10EF91FF910E94A5112F9149
:1025C0003F914F915F910C944B10EE0FFF1F0590C0
:1025D000F491E02D09940E946B0EB7FF0895821BC1
:0825E000930B0895F894FFCF5E
:1025E800000000006003C002ED02AD031E03FC0200
:1025F80010030000000048061B06E705BD05E005BE
:08260800CD05BE050D0A00001E
:00000001FF
